:0800000063C0FECFFDCFFCCF71
:10000800FBCFFACFF9CFF8CFF7CFF6CFF5CFF4CFB4
:10001800F3CFF2CFF1CFF0CFEFCFEECFEDCF102768
:10002800E80364000A00010000100001100001004C
:10003800F401000000000000000000000000320091
:10004800C800E803000056414C3A2025642C2025BE
:10005800640A53544154453A204F46460056414C91
:100068003A2025642C2025640A53544154453A20EB
:100078004F4E00534554204F4E2056414C55452075
:1000880020202000534554204F46462056414C55C9
:1000980045202020005345542054494D45522056B0
:1000A800414C554520002564202020202020202078
:1000B80020202020000080C002006001BE00000057
:1000C800F894EE27ECBBF1E0FBBFEBBFE5BFF8E12E
:1000D800F1BDE1BD8DE0A2E0BB27ED938A95E9F77C
:1000E80080E094E0A0E6ED930197E9F7E0ECF0E01A
:1000F80085919591009761F0A591B591059015901E
:10010800BF01F00105900D920197E1F7FB01F0CFD7
:10011800EFE5EDBFE4E0EEBFC0E6D1E00DC0AA9385
:10012800E881E06EE7B98BE18A95F1F7369A349B5E
:10013800FECF349AE5B1AFC3E69786E1A0E0B0E020
:10014800E8E3F0E076D400E010E020E030E040E0C2
:1001580050E0EEE0E8BBE0E6E7BBE0E0E5BBE4BB8F
:10016800E2BBE1BBE3BFE2BFEFBDEEBDEDBDECBD61
:10017800E7BDE6BDEBBDEABDE9BDE8BDE2BDE5BD55
:10018800E4BDE3BDE5BFE9BFEAB9E0E8E8B9E0E00E
:10019800E0BFE0EEE7B9E7E8E6B9E0E0EDB9E6BFD1
:1001A800A8E051D3E0E0EA83EB838ED3909774F410
:1001B800EA81FB81DE015696AE0FBF1FE0E2EC93A9
:1001C800EA81FB813196EA83FB83EFCF80D3A9F4E0
:1001D800022E032A21F47ED3EEE4F0E003C07AD3A2
:1001E800E5E6F0E0FA93EA93FA0179D3EC8DFD8D18
:1001F80076D388E08DD22C9622C074D329F46AD3A2
:10020800EBE7F0E073D31BC077D329F463D3ECE8B2
:10021800F0E06CD314C074D329F45CD3EDE9F0E0BA
:1002280065D30DC071D359F455D3EEEAF0E0FA93D3
:10023800EA93EA85FB8553D384E06AD22896D1D223
:10024800DE015696F0D2A0E0B199A1E0A03019F4F1
:100258005FD3109709F039C05ED3E887F9875ED37A
:1002680094F535D319F401E010E02DC03BD329F4FF
:1002780059D35BD350D35CD326C03ED339F4EE8533
:10028800FF8553D3E2E0F0E053D31DC039D339F4EE
:10029800EA89FB894AD3E3E0F0E04AD314C034D3B7
:1002A80091F44BD319F44CD34ED30BC025D321F47E
:1002B80047D3EE87FF8705C023D319F441D3EA8BD0
:1002C800FB8B00E010E042D305C0B19B03C0E0E027
:1002D800E887E987A0E0B299A1E0A03021F4AC85D5
:1002E800BD85109709F03FC016D3EC87FD8716D35C
:1002F800C4F5EDD2B1F1F6D211F0FED219F40F5FC8
:100308001F4F2FC0FDD219F401E010E02AC0FCD223
:1003180041F513D311F0F0D219F412D331961FC05E
:10032800EFD2F9F418D3A03BE4E0BE0724F008D3D9
:10033800E85AFD4F14C00FD3A835E2E0BE0724F0F9
:10034800FFD2E650FF4F0BC006D3AC32E1E0BE0748
:1003580024F0F6D2EC59FF4F02C0F2D23A96EE835F
:10036800FF83F4D205C0B29B03C0E0E0EC87ED87C1
:10037800A0E0B399A1E0A03021F4AA85BB8510972D
:1003880009F03EC0C8D2EAD2C9D2C4F5A0D2B1F1B0
:10039800A9D219F403E010E031C0AED211F0B0D206
:1003A80019F4015010402AC0AFD241F5C6D211F05D
:1003B800A3D219F4C5D231971FC0A2D2F9F4CBD277
:1003C800A830E7E0BE0724F0BBD2E855F24014C0DD
:1003D800C2D2A235E3E0BE0724F0B2D2EA5FF04011
:1003E8000BC0B9D2A039E1E0BE0724F0A9D2E45687
:1003F800F04002C0A5D23A97EE83FF83A7D205C08A
:10040800B39B03C0E0E0EA87EB8788D23CF4C69A46
:10041800E881F9813197E883F98303C0C69800E041
:1004280010E0A5E07CDE4E2F55277CD24E175F07E3
:1004380024F000240216030639F093D224F06BD27C
:10044800E217F30709F006C0EC89FD893196EC8BB9
:10045800FD8B03C0E0E0EC8BED8BEA89FB89AC896E
:10046800BD89EA17FB075CF45DD24E175F071CF0E5
:1004780021E030E004C075D214F020E030E02030F4
:1004880011F4C59801C0C59AAAE070D29FCEFFCFDB
:100498006FD2C5D219D21296ADD23097F1F014D2DC
:1004A8006AD28F01309761F00230E0E01E07A0F0B9
:1004B800F80131978F01AA81BB811496ED93FC93C3
:1004C80003D212965BD23197AC81A083FDD192D230
:1004D800FF2312F0F9D152D205C0F6D1EFEFFFEFAA
:1004E800ED93FC93A3D22596089542D2269793D2F2
:1004F80010E0AC85BD85E0E0F0E0ED93FC93EA897F
:10050800FB893196EA8BFB8B3197E4912E2FE030F3
:1005180009F4F8C0E12FE03031F4253211F411E08C
:1005280001C032D2EEC0E130A1F4253211F42CD250
:10053800E7C012E040E000E02D3211F401E0E1C034
:100548002B3211F44BE2DDC0203211F440E2D9C065
:1005580002C0E23039F450E013E0203311F40068AF
:10056800D0C003C0E33009F0CCC0203310F02A33E8
:1005780008F007C0AAE05A9F502DE22FE0535E0F03
:10058800C0C0E22FE33631F406D2CCD1A481AA93BD
:1005980005D2B6C0E33739F4FED106D2C6D1DBD1D5
:1005A8007CD11E2F09C0E03759F4F5D1FDD1BDD15A
:1005B800D2D17ED11E2F086002600F7730E02EC0A6
:1005C800E43611F0E93611F4046002C0E53729F485
:1005D800E6E2F0E0AAD115E00BC0E83511F40860B6
:1005E80003C0E83709F08CC0E0E3F0E09ED114E0E6
:1005F80002FF11C0D0D1D8D1B1D1AB85AA232AF43A
:10060800EA85FB85EED1AAD14DE2403011F01F5F9B
:1006180001C00B7F03C0BFD1C7D1A0D100FD10C05E
:10062800151770F407FF08C002FF04C00B7F242FC2
:10063800115001C020E301C020E2A6D15150F0CFF3
:10064800312F01FF13C0303081F003FF04C078D18F
:1006580025916BD104C07FD12D91AE83BF8394D1F6
:10066800503009F051503150EECF41C020E368D1ED
:10067800C5D1E887F98764D1329657D1E885F985DD
:10068800AA85BB85AE17BF0740F02F5F41D1EA8529
:10069800FB85EA1BFB0B62D1F1CF2A3328F003FF5D
:1006A80002C0295F01C0295D04FD18C0213318F478
:1006B8002FD1119709F409C0531710F000FF01C09A
:1006C80011C020E207FF0AC020E3006102FF06C054
:1006D8000B7F4A9363D1503009F0515055D15030B7
:1006E80009F05150315014D1129708F0BFCF00FFD4
:1006F80007C0503029F05150E0E2EA934FD1F9CFCA
:1007080010E0FDCEAC85BD8575D18CD16496089579
:10071800FF92F82E269781D14AD1309719F4EFEF3E
:10072800FFEF1DC0DE01169658D18D0140D1FDD0D6
:10073800E0E0E887E987DE011A964FD15BD1FA93AA
:10074800EA931A930A93ECE4F2E0FA93EA93DE014F
:100758001A96CBDE9F01FFD0E0E0EC93F90164D15B
:100768002A96FF900895AA93E881E07111F0939A70
:1007780001C09398E881E07211F0929A01C09298B2
:10078800E881E07411F0919A01C09198E881E078CD
:1007980011F0909A01C0909885E08A95F1F7949AA3
:1007A8008DE08A95F1F794988DE08A95F1F773C0FA
:1007B800AA93A881D8DFE881E295E883A881D3DFEE
:1007C80085E88A95F1F767C0AA93E881F0E0E05AD6
:1007D800FE4FE081A981AE0FEBDF59804880229659
:1007E8000895A2E0E5DFA3E0C1D0ACE0E1DFA1E03D
:1007F800DFDFA3E0BBD0E0E04E2E5E2E0895AA9383
:10080800A881AA3011F0571440F0E0E0EA9343942D
:10081800A42DDADFA881AA30F1F15394969AA88121
:10082800C7DF969838C0A4D01A93A981BA81ED91F0
:10083800A983BA831E2FE03019F0A12FE0DFF5CF8E
:10084800188123960895AA938B9A8A9A899A889AE6
:100858008C9A8E9A8D9A9498969895987880E88133
:10086800E058E0936201E881E054E0936301A4E179
:100878007DD0A2D0A1D0A0D0A0E275DF88EC90E016
:100888000197F1F7A8E294DFA4E092DFA5E890DFF2
:10089800A6E08EDFA6DF219608956AD0A991B991C6
:1008A800EE27FF276D91662311F03196FBCF08954F
:1008B8005FD0AA27BB27E991F9910590002011F094
:1008C8001196FBCFFD010895AA81BB810895F80117
:1008D80030970895FE017696FA93EA93089585D0A5
:1008E80091D00895E130A0E0FA070895FA93EA93C9
:1008F80080E00EDF24960895E230A0E0FA0708951C
:10090800E330A0E0FA070895E430A0E0FA0708957C
:10091800A885B9850895E1E0F0E00895A881B98136
:1009280076D00895E889F9890895EE83FF830895BC
:10093800EC83FD8304E010E00895EC81FD81D2CFC3
:10094800EE81FF810895E88BF98B0895E2E3F0E0EA
:10095800E883F9830895AE81BF810895EA87FB870C
:100968000895EE85FF85E417F5070895B0E02BC0DC
:10097800BA93AA93089514963DD00895ED91FD91E8
:100988003196FE93EE9308952A93AD85BE85EF8543
:10099800F88909950895C6DF3497D5CFAD85BE850A
:1009A800EF85F88909950895A889B989E4CFDE010A
:1009B8001C9613D01FD00895A0E3D5DE88EC90E0F4
:1009C8000197F1F70895109639F080ED97E00197B7
:1009D800F1F7A8951197C9F708950024AF0DB01D38
:1009E8000895F195E195F04008956F2F660F660B15
:1009F800762F0895ED91FC91119708950590F49143
:100A0800E02D08957A936A93FA93EA93089500245F
:100A18000A160B0608955A934A933A932A931A93FF
:100A28000A9308955D814C813B812A81198108814F
:100A38000895AC0FBD1F05900D928A95E1F70895B2
:00000001FF
